S01600004D696E6943616C63756C61746F722E7372656377
S11300000C942A000C943F000C943F000C943F0085
S11300100C943F000C943F000C943F000C943F0060
S11300200C943F000C943F000C943F000C943F0050
S11300300C943F000C943F000C943F000C943F0040
S11300400C943F000C943F000C943F000C943F0030
S11300500C943F0011241FBECFE5D8E0DEBFCDBF16
S113006010E0A0E6B0E0E4EFF2E102C005900D92EA
S1130070A639B107D9F70E94DA040C9478090C94D4
S11300800000982F9695969596958770613009F49F
S113009041C020F0623009F48DC00895913099F088
S11300A028F09230E9F0933041F108954AB321E009
S11300B030E0B90102C0660F771F8A95E2F7CB01E1
S11300C0842B8ABB089547B321E030E0B90102C014
S11300D0660F771F8A95E2F7CB01842B87BB0895BF
S11300E044B321E030E0B90102C0660F771F8A955E
S11300F0E2F7CB01842B84BB089541B321E030E0C7
S1130100B90102C0660F771F8A95E2F7CB01842BF1
S113011081BB08959130C1F028F0923039F19330C9
S1130120B9F108954AB321E030E0B90102C0660F85
S1130130771F8A95E2F7CB018095942F98239ABB79
S11301409BB389238BBB089547B321E030E0B90109
S113015002C0660F771F8A95E2F7CB018095942F32
S1130160982397BB98B3892388BB089544B321E0AF
S113017030E0B90102C0660F771F8A95E2F7CB0120
S11301808095942F982394BB95B3892385BB0895B8
S113019041B321E030E0B90102C0660F771F8A95B0
S11301A0E2F7CB018095942F982391BB92B38923D6
S11301B082BB08959130C1F028F0923039F1933028
S11301C0B9F108954AB321E030E0B90102C0660FE5
S11301D0771F8A95E2F7CB01962F909594239ABBCB
S11301E09BB3892B8BBB089547B321E030E0B90161
S11301F002C0660F771F8A95E2F7CB01962F909580
S1130200942397BB98B3892B88BB089544B321E00A
S113021030E0B90102C0660F771F8A95E2F7CB017F
S1130220962F9095942394BB95B3892B85BB089501
S113023041B321E030E0B90102C0660F771F8A950F
S1130240E2F7CB01962F9095942391BB92B3892B1F
S113025082BB0895982F96959695969587706130F0
S1130260E1F5913099F028F09230E9F0933041F1C2
S113027008954BB321E030E0B90102C0660F771F47
S11302808A95E2F7CB01842B8BBB089548B321E018
S113029030E0B90102C0660F771F8A95E2F7CB01FF
S11302A0842B88BB089545B321E030E0B90102C036
S11302B0660F771F8A95E2F7CB01842B85BB0895DF
S11302C042B321E030E0B90102C0660F771F8A957E
S11302D0E2F7CB01842B82BB089561113FC09130BA
S11302E0A1F028F09230F9F0933059F108954BB30E
S11302F021E030E0B90102C0660F771F8A95E2F76A
S1130300CB01809584238BBB089548B321E030E072
S1130310B90102C0660F771F8A95E2F7CB01809579
S1130320842388BB089545B321E030E0B90102C0BD
S1130330660F771F8A95E2F7CB018095842385BBEE
S1130340089542B321E030E0B90102C0660F771F7F
S11303508A95E2F7CB018095842382BB0895282FE8
S11303602695269526958770213089F028F022302D
S1130370C9F0233011F12BC029B330E0A90102C028
S1130380559547958A95E2F7942F917020C026B32E
S113039030E0A90102C0559547958A95E2F7942F5C
S11303A0917015C023B330E0A90102C0559547955B
S11303B08A95E2F7942F91700AC020B330E0A90126
S11303C002C0559547958A95E2F7942F9170892F2D
S11303D00895CF93C0E009C0EC2FF0E0E05AFF4F3E
S11303E060818C2F0E944100CF5FC032A8F3CF916F
S11303F00895FF920F931F93CF93DF9361E08CE0F6
S11304000E942A0161E08DE00E942A0161E08EE0F1
S11304100E942A0161E08FE00E942A010F2EFCE273
S1130420FF2EF02D10E027C00CE0010F60E0802FBC
S11304300E942A01D0E018C0CAE1CD0F8C2F0E947F
S1130440AF01811110C0E12FF0E0EE0FFF1FEE0F9E
S1130450FF1FE058FF4FED0FF11DF0808C2F0E941D
S1130460AF018823D9F3DF5FD43030F361E0802F0C
S11304700E942A011F5F1430B8F28F2DDF91CF91B3
S11304801F910F91FF900895CF93C82F60E081E0F2
S11304900E942A01C4FB662760F983E00E942A01B6
S11304A0C5FB662760F984E00E942A01C6FB662723
S11304B060F985E00E942A016C2F661F6627661F7B
S11304C086E00E942A0161E082E00E942A018FEC0A
S11304D097E00197F1F700C0000060E082E00E941D
S11304E02A018FEC97E00197F1F700C000006C2F10
S11304F0617083E00E942A01C1FB662760F984E0F1
S11305000E942A01C2FB662760F985E00E942A0145
S1130510C3FB662760F986E00E942A0161E082E05D
S11305200E942A018FEC97E00197F1F700C00000C8
S113053060E082E00E942A018FEC97E00197F1F7D6
S113054000C00000CF910895CF93C82F61E081E0EF
S11305500E942A01C4FB662760F983E00E942A01F5
S1130560C5FB662760F984E00E942A01C6FB662762
S113057060F985E00E942A016C2F661F6627661FBA
S113058086E00E942A0161E082E00E942A018FEC49
S113059097E00197F1F700C0000060E082E00E945C
S11305A02A018FEC97E00197F1F700C000006C2F4F
S11305B0617083E00E942A01C1FB662760F984E030
S11305C00E942A01C2FB662760F985E00E942A0185
S11305D0C3FB662760F986E00E942A0161E082E09D
S11305E00E942A018FEC97E00197F1F700C0000008
S11305F060E082E00E942A018FEC97E00197F1F716
S113060000C00000CF91089581E00E9444028FE968
S11306109FE00197F1F700C0000008952FE788E3F9
S113062091E0215080409040E1F700C0000060E07C
S113063081E00E942A0160E083E00E942A0161E0D7
S113064084E00E942A0160E085E00E942A0160E0C3
S113065086E00E942A0161E082E00E942A018FEC78
S113066097E00197F1F700C0000060E082E00E948B
S11306702A018FEC97E00197F1F700C0000088E2AF
S11306800E9444028CE00E94440281E00E944402E1
S11306908FEC97E00197F1F700C0000086E00E941C
S11306A0440208950E94A40208950F931F93CF93C8
S11306B0DF938C01C0E0D0E003C00E94A402219625
S11306C0F801EC0FFD1F80818111F7CFDF91CF91ED
S11306D01F910F9108952F923F924F925F926F92C4
S11306E07F928F929F92AF92BF92CF92DF92EF92BE
S11306F0FF920F931F93CF93DF93CDB7DEB72D9760
S11307000FB6F894DEBF0FBECDBF822E3B874C8759
S11307105D87762E672E382E292EA0E00E946C0964
S113072029F480E3820F0E9452031CC03B854C8550
S11307305D85A0E00E946C09ACF48DE20E94520336
S1130740282D3B854C855D85672D762D832D922D37
S11307500E942509822E3B874C875D87762E672E63
S1130760382E292E912C32C0492C512C0F2EFAE010
S1130770AF2EF02DB12CC12CD12CE12CF12C00E0AA
S113078010E0282D3B854C855D85672D762D832DC6
S1130790922D0E949508E1E0F0E0EC0FFD1FE40DBE
S11307A0F51D205D2083282D3B854C855D85672DB7
S11307B0762D832D922D0E949708822E3B874C879D
S11307C05D87762E672E382E292E9394282D3B850F
S11307D04C855D85672D762D832D922DA0E00E949A
S11307E06C0911F60DC0E92DF0E0319781E090E03D
S11307F08C0F9D1FE80FF91F80810E94A4029A9418
S11308009110F1CF2D960FB6F894DEBF0FBECDBF79
S1130810DF91CF911F910F91FF90EF90DF90CF90D8
S1130820BF90AF909F908F907F906F905F904F900C
S11308303F902F900895811105C080E8860F0E9493
S113084044020895813021F480EC860F0E94440212
S11308500895CF93DF93D42F0E941B04C0E004C0FB
S113086080E20E945203CF5FCD17D0F3DF91CF9186
S113087008954F925F926F927F928F929F92AF9260
S1130880BF92CF92DF92EF92FF921F93CF93DF93A9
S11308902B013C010E9442076B017C014B015C016E
S11308A0BB0C8808982C5401262F3D2D4E2D5F2D0E
S11308B0682D782D882D982D0E946B03C701B601F1
S11308C00E9473079B01AC01C301B2010E945E0642
S11308D04B015C0120E030E0A901C301B2010E9498
S11308E0CB0688233CF475016401F7FAF094F7F819
S11308F0F09402C07501640120E030E0A901C50153
S1130900B4010E94230818160CF044C08EE20E9421
S11309105203D1E010E03CC020E030E040E251E47A
S1130920C701B6010E9428086B017C010E9442079E
S1130930C62F611108C0112331F0D43020F480E3B4
S11309400E94520327C0112361F0CC2351F0C4301C
S113095020F081E30E9452031DC080E30E945203F1
S113096019C0CC2329F080E38C0F0E94520301C0EC
S113097011E06C2F70E080E090E00E9473079B010F
S1130980AC01C701B6010E945E066B017C01DF5F0A
S1130990D53010F2DF91CF911F91FF90EF90DF904F
S11309A0CF90BF90AF909F908F907F906F905F900B
S11309B04F900895CF93DF93CDB7DEB767970FB607
S11309C0F894DEBF0FBECDBF0E94E9010E940E0362
S11309D0FE01319680E1DF011D928A95E9F7212C11
S11309E01D8A1E8A1F8AA12CB12CC12C912CF12C9A
S11309F0712C00E0812CE12C0E94F901182F8C321B
S1130A00D9F38B3231F08F3221F08D3211F08A32EA
S1130A1009F40F5F1D3359F1133649F1DD24D394E2
S1130A20DF0CE1E0F0E0EC0FFD1FEF0DF11D108392
S1130A3089818B3231F08F3221F08D3211F08A327C
S1130A4059F4711009C06A2D7B2D8C2D992D0E94AB
S1130A5039047724739407C0711005C0A12CB12CFC
S1130A60C12C912CE12C812F0E945203FD2C1D33AB
S1130A7019F0023009F003C14FE060E081E00E9408
S1130A80290460E081E00E941B0400E0198A1A8AAC
S1130A901B8A1C8AD12C77C0E1E0F0E0EC0FFD1F2B
S1130AA0E00FF11D108180ED810F8A3018F5E110FF
S1130AB021C020E030E040E251E46A2D7B2D8C2DF2
S1130AC0992D0E9428082B013C01612F70E060538E
S1130AD07109072E000C880B990B0E9473079B0168
S1130AE0AC01C301B2010E945F06A62EB72EC82E28
S1130AF0992E48C08A3020F5B1E0EB1221C020E0E5
S1130B0030E040E251E469897A898B899C890E94AA
S1130B1028082B013C01612F70E060537109072EF6
S1130B20000C880B990B0E9473079B01AC01C30155
S1130B30B2010E945F06698B7A8B8B8B9C8B22C0DF
S1130B401B32A9F018F41A3249F012C01D3219F000
S1130B501F3241F00DC0882483940AC0689488240D
S1130B6081F806C00F2EF3E08F2EF02D01C0812CEA
S1130B70DD2019F0EE24E39405C0382CDD24D39451
S1130B80EE24E3940F5F0F1508F486CF81E0381646
S1130B90D1F0381638F0A2E03A1631F1B3E03B1642
S1130BA0A1F158C029893A894B895C896A2D7B2D2A
S1130BB08C2D992D0E945F06A62EB72EC82E992E35
S1130BC00E9439044BC029893A894B895C896A2D72
S1130BD07B2D8C2D992D0E945E06A62EB72EC82E35
S1130BE0992E0E9439043AC029893A894B895C8933
S1130BF06A2D7B2D8C2D992D0E942808A62EB72EA8
S1130C00C82E992E0E94390429C020E030E0A901A1
S1130C1069897A898B899C890E94CB06882389F00B
S1130C2029893A894B895C896A2D7B2D8C2D992DD4
S1130C300E94D006A62EB72EC82E992E0E943904E3
S1130C400DC080E990E00E945503A22CBD88CE8897
S1130C509F8804C0A22CBD88CE889F884FE060E0A6
S1130C6080E00E94290460E080E00E941B042A2C9A
S1130C70BD8ACE8A9F8AF12C712C00E0BDCE13363A
S1130C8009F0BACE0E94040380E008C0E1E0F0E07D
S1130C90EC0FFD1FE80FF11D10828F5F8F15B0F36D
S1130CA0212C1D8A1E8A1F8AA12CB12CC12C912CA7
S1130CB0F12C712C00E0812CE12C9ECE5058BB27E6
S1130CC0AA270E9476060C94E9070E94DB0738F0F5
S1130CD00E94E20720F039F49F3F19F426F40C94A3
S1130CE0D8070EF4E095E7FB0C94D207E92F0E9495
S1130CF0FA0758F3BA17620773078407950720F0B9
S1130D0079F4A6F50C941C080EF4E0950B2EBA2F7A
S1130D10A02D0B01B90190010C01CA01A0011124FD
S1130D20FF27591B99F0593F50F4503E68F11A16A9
S1130D30F040A22F232F342F4427585FF3CF46953A
S1130D4037952795A795F0405395C9F77EF41F165C
S1130D50BA0B620B730B840BBAF09150A1F0FF0F26
S1130D60BB1F661F771F881FC2F70EC0BA0F621F12
S1130D70731F841F48F4879577956795B795F79502
S1130D809E3F08F0B0CF9395880F08F09927EE0F97
S1130D909795879508950E94AE0708F481E0089519
S1130DA00E94E4060C94E9070E94E20758F00E94AE
S1130DB0DB0740F029F45F3F29F00C94D20751116E
S1130DC00C941D080C94D8070E94FA0768F3992321
S1130DD0B1F3552391F3951B550BBB27AA27621733
S1130DE07307840738F09F5F5F4F220F331F441F40
S1130DF0AA1FA9F335D00E2E3AF0E0E832D0915074
S1130E005040E695001CCAF72BD0FE2F29D0660F60
S1130E10771F881FBB1F261737074807AB07B0E8A3
S1130E2009F0BB0B802DBF01FF2793585F4F3AF0A9
S1130E309E3F510578F00C94D2070C941D085F3F37
S1130E40E4F3983ED4F3869577956795B795F7952F
S1130E509F5FC9F7880F911D9695879597F9089517
S1130E60E1E0660F771F881FBB1F621773078407B3
S1130E70BA0720F0621B730B840BBA0BEE1F88F7C2
S1130E80E09508950E94020888F09F5798F0B92FC2
S1130E909927B751B0F0E1F0660F771F881F991FAB
S1130EA01AF0BA95C9F714C0B13091F00E941C0829
S1130EB0B1E008950C941C08672F782F8827B85F39
S1130EC039F0B93FCCF3869577956795B395D9F703
S1130ED03EF490958095709561957F4F8F4F9F4F0D
S1130EE00895E89409C097FB3EF490958095709519
S1130EF061957F4F8F4F9F4F9923A9F0F92F96E962
S1130F00BB279395F695879577956795B795F111D6
S1130F10F8CFFAF4BB0F11F460FF1BC06F5F7F4F73
S1130F208F4F9F4F16C0882311F096E911C0772385
S1130F3021F09EE8872F762F05C0662371F096E88E
S1130F40862F70E060E02AF09A95660F771F881F5D
S1130F50DAF7880F9695879597F90895990F000801
S1130F60550FAA0BE0E8FEEF16161706E807F90777
S1130F70C0F012161306E407F50798F0621B730B12
S1130F80840B950B39F40A2661F0232B242B252B93
S1130F9021F408950A2609F4A140A6958FEF811D36
S1130FA0811D089597F99F6780E870E060E00895D7
S1130FB09FEF80EC089500240A941616170618066D
S1130FC00906089500240A94121613061406050649
S1130FD00895092E0394000C11F4882352F0BB0FDA
S1130FE040F4BF2B11F460FF04C06F5F7F4F8F4F3D
S1130FF09F4F089557FD9058440F551F59F05F3F78
S113100071F04795880F97FB991F61F09F3F79F026
S113101087950895121613061406551FF2CF4695A8
S1131020F1DF08C0161617061806991FF1CF86952A
S11310307105610508940895E894BB27662777270E
S1131040CB0197F908950E94AE0708F48FEF089535
S11310500E943B080C94E9070E94DB0738F00E94C9
S1131060E20720F0952311F00C94D2070C94D807D2
S113107011240C941D080E94FA0770F3959FC1F384
S1131080950F50E0551F629FF001729FBB27F00D32
S1131090B11D639FAA27F00DB11DAA1F649F662787
S11310A0B00DA11D661F829F2227B00DA11D621FD6
S11310B0739FB00DA11D621F839FA00D611D221F90
S11310C0749F3327A00D611D231F849F600D211D74
S11310D0822F762F6A2F11249F5750409AF0F1F0F7
S11310E088234AF0EE0FFF1FBB1F661F771F881F60
S11310F091505040A9F79E3F510580F00C94D207BF
S11311000C941D085F3FE4F3983ED4F386957795DD
S11311106795B795F795E7959F5FC1F7FE2B880F05
S1131120911D9695879597F90895689401C0E89460
S1131130F92FF12B12F00C94C908A0E0B0E0E3EA17
S1131140F8E00C943B09092E059422F40E94250929
S1131150112392F4F0E80F26FFEFE094F094009549
S11311601095B094C094D094A194BF0ACF0ADF0A1A
S1131170EF0AFF0A0F0B1F0B0E94D40807FC0E9402
S11311802509CDB7DEB7ECE00C945709689401C08B
S1131190E8948F929F92CF93DF930E94D408DF91BB
S11311A0CF919F908F90089588249924F401E401AD
S11311B0B0E49F93AA279A158B049C04ED05FE05C1
S11311C0CF05D007A10798F4AD2FDC2FCF2FFE2F2A
S11311D0E92D982C892E982F872F762F652F542F41
S11311E0432F322F2227B85031F7BF9127C01B2E2F
S11311F0BF91BB27220F331F441F551F661F771F44
S1131200881F991F881C991CEE1FFF1FCC1FDD1F10
S1131210AA1FBB1F8A149B04EC05FD05CE05DF0540
S1131220A007B10748F08A189B08EC09FD09CE090C
S1131230DF09A00BB10B21601A94E1F62EF494019E
S1131240AF01BE01CD01000C0895609570958095A5
S1131250909530954095509521953F4F4F4F5F4F56
S11312606F4F7F4F8F4F9F4F08952F923F924F9212
S11312705F926F927F928F929F92AF92BF92CF9222
S1131280DF92EF92FF920F931F93CF93DF93CDB72B
S1131290DEB7CA1BDB0B0FB6F894DEBF0FBECDBFA3
S11312A009942A88398848885F846E847D848C8474
S11312B09B84AA84B984C884DF80EE80FD800C817D
S11312C01B81AA81B981CE0FD11D0FB6F894DEBF60
S11312D00FBECDBFED0108950024A7FD00942A1789
S11312E0300540055005600570058005900508959A
S10712F0F894FFCF9C
S11312F401000000000000010000000000000000E4
S113130400000000000000000200020202020000CB
S11313143738392F3435362A3132332D63303D2B67
S10913246572726F720095
S9030000FC
